S01300004145535F50726F6A6563742E7372656302
S11300000C9400020C941D020C941D020C941D020D
S11300100C941D020C941D020C941D020C941D02E0
S11300200C941D020C941D020C941D020C941D02D0
S11300300C941D020C941D020C941D020C941D02C0
S11300400C941D020C941D020C941D020C941D02B0
S11300500C941D020C941D020C941D020C941D02A0
S11300600C941D020C941D020C941D020C941D0290
S11300700C941D020C941D020C941D020C941D0280
S11300800C941D020C941D020C941D020C941D0270
S11300900C941D020C941D020C941D020C941D0260
S11300A00C941D020C941D020C941D020C941D0250
S11300B00C941D020000000000000000000000007D
S11300C0000000000000000000000000000000002C
S11300D0000000000000000000000000000000001C
S11300E0000000000000000000000000000000000C
S11300F000000000000000000000000000000000FC
S113010052096AD53036A538BF40A39E81F3D7FB88
S11301107CE339829B2FFF87348E4344C4DEE9CBD2
S1130120547B9432A6C2233DEE4C950B42FAC34E47
S1130130082EA16628D924B2765BA2496D8BD125FD
S113014072F8F66486689816D4A45CCC5D65B692A1
S11301506C704850FDEDB9DA5E154657A78D9D8445
S113016090D8AB008CBCD30AF7E45805B8B3450665
S1130170D02C1E8FCA3F0F02C1AFBD0301138A6B7F
S11301803A9111414F67DCEA97F2CFCEF0B4E673AF
S113019096AC7422E7AD3585E2F937E81C75DF6E5D
S11301A047F11A711D29C5896FB7620EAA18BE1BC3
S11301B0FC563E4BC6D279209ADBC0FE78CD5AF469
S11301C01FDDA8338807C731B11210592780EC5FAF
S11301D060517FA919B54A0D2DE57A9F93C99CEF0B
S11301E0A0E03B4DAE2AF5B0C8EBBB3C835399610C
S11301F0172B047EBA77D626E169146355210C7D4A
S11302000001020408102040801B3600000000009A
S113021000000000000000000000000000000000DA
S113022000000000000000000000000000000000CA
S113023000000000000000000000000000000000BA
S113024000000000000000000000000000000000AA
S1130250000000000000000000000000000000009A
S1130260000000000000000000000000000000008A
S1130270000000000000000000000000000000007A
S1130280000000000000000000000000000000006A
S1130290000000000000000000000000000000005A
S11302A0000000000000000000000000000000004A
S11302B0000000000000000000000000000000003A
S11302C0000000000000000000000000000000002A
S11302D0000000000000000000000000000000001A
S11302E0000000000000000000000000000000000A
S11302F000000000000000000000000000000000FA
S1130300637C777BF26B6FC53001672BFED7AB76CE
S1130310CA82C97DFA5947F0ADD4A2AF9CA472C079
S1130320B7FD9326363FF7CC34A5E5F171D83115E6
S113033004C723C31896059A071280E2EB27B27507
S113034009832C1A1B6E5AA0523BD6B329E32F847F
S113035053D100ED20FCB15B6ACBBE394A4C58CF77
S1130360D0EFAAFB434D338545F9027F503C9FA84B
S113037051A3408F929D38F5BCB6DA2110FFF3D219
S1130380CD0C13EC5F974417C4A77E3D645D1973CD
S113039060814FDC222A908846EEB814DE5E0BDBC7
S11303A0E0323A0A4906245CC2D3AC629195E479FE
S11303B0E7C8376D8DD54EA96C56F4EA657AAE0858
S11303C0BA78252E1CA6B4C6E8DD741F4BBD8B8AF3
S11303D0703EB5664803F60E613557B986C11D9E59
S11303E0E1F8981169D98E949B1E87E9CE5528DFD0
S11303F08CA1890DBFE6426841992D0FB054BB16FC
S113040011241FBECFEFD8E0DEBFCDBF11E0A0E0C6
S1130410B1E0E8E5FBE002C005900D92A430B1071D
S1130420D9F721E0A4E0B1E001C01D92A830B207E1
S1130430E1F70E94A0040C94AA050C940000FC01AE
S11304400FB6F89460910401709105018091060142
S1130450909107010FBE309721F0608371838283EE
S113046093830895CF93DF93CDB7DEB760970FB62C
S1130470F894DEBF0FBECDBFDB01EC91E150EC93ED
S1130480F0E0EE0FFF1FEE0FFF1FE80FF91F80E1F2
S1130490DE01119601900D928A95E1F720E010C0DB
S11304A0822F90E0FA01E80FF91FA1E0B0E0AC0F51
S11304B0BD1FA80FB91F8C919081892780832F5F5E
S11304C0203170F360960FB6F894DEBF0FBECDBF37
S11304D0DF91CF9108959C0190E00AC0D901A90F42
S11304E0B11DEC91F0E0E050FF4FE491EC939F5F7D
S11304F09031A0F30895E62FF0E0EE0FFF1FEE0F0A
S1130500FF1FE80FF91F8081938190839281938369
S113051091819283818308950F931F93CF93DF93E7
S1130520CDB7DEB760970FB6F894DEBF0FBECDBF70
S1130530BC01A0E022C04A2F50E0FA01EE0FFF1FD9
S1130540EE0FFF1F292F30E0E20FF31FE60FF71F16
S11305508081220F331F220F331FE1E0F0E0EC0F04
S1130560FD1F2E0F3F1FF901E40FF51F80839F5FCE
S113057001C090E09430F8F2AF5FA430D0F301E012
S11305800BC0602FCE0101960E947B021F5F01C049
S113059011E01017B0F30F5F0430D0F360960FB67C
S11305A0F894DEBF0FBECDBFDF91CF911F910F91A5
S11305B00895CF92DF92FF920F931F93CF93DF930F
S11305C01F92CDB7DEB76C018B018BE08983AB0141
S11305D0BE016F5F7F4FC6010E943202C8010E94B4
S11305E08C02C8010E946B02F12C0EC0A801BE014E
S11305F06F5F7F4FC6010E943202C8010E948C02C5
S1130600C8010E946B02F39488E08F1578F7A80163
S1130610BE016F5F7F4FC6010E9432020F90DF91CF
S1130620CF911F910F91FF90DF90CF900895CF93BA
S1130630DF93CDB7DEB760970FB6F894DEBF0FBE79
S1130640CDBFDB01EC91F0E0EE0FFF1FEE0FFF1FBB
S1130650E80FF91F80E1DE01119601900D928A9551
S1130660E1F720E010C0822F90E0FA01E80FF91FB3
S1130670A1E0B0E0AC0FBD1FA80FB91F8C91908111
S1130680892780832F5F203170F3FB0180818F5F86
S1130690808360960FB6F894DEBF0FBECDBFDF91A6
S11306A0CF9108959C0190E00AC0D901A90FB11D12
S11306B0EC91F0E0E050FD4FE491EC939F5F9031BA
S11306C0A0F30895E62FF0E0EE0FFF1FEE0FFF1FDB
S11306D0E80FF91F838190819383918190839281A4
S11306E09183828308950F931F93CF93DF93CDB7A4
S11306F0DEB760970FB6F894DEBF0FBECDBFBC0166
S1130700A0E022C04A2F50E0FA01EE0FFF1FEE0FC7
S1130710FF1F292F30E0E20FF31FE60FF71F808140
S1130720220F331F220F331FE1E0F0E0EC0FFD1F17
S11307302E0F3F1FF901E40FF51F80839F5F01C057
S113074090E09430F8F2AF5FA430D0F301E00BC036
S1130750602FCE0101960E9462031F5F01C011E069
S11307601017B0F30F5F0430D0F360960FB6F8940F
S1130770DEBF0FBECDBFDF91CF911F910F910895C2
S1130780CF92DF92FF920F931F93CF93DF931F9229
S1130790CDB7DEB76C018B011982AB01BE016F5F6F
S11307A07F4F0E941703F12C0EC0C8010E94520310
S11307B0C8010E947303A801BE016F5F7F4FC60189
S11307C00E941703F39488E08F1578F7C8010E94FC
S11307D05203C8010E947303A801BE016F5F7F4FDB
S11307E0C6010E9417030F90DF91CF911F910F91C3
S11307F0FF90DF90CF900895FF920F931F93CF93B4
S1130800DF93FC0190E1DB0101900D929A95E1F7F1
S113081044E066C024E04202C00111249B01280F79
S1130820391FF9013497F0815F2FD9011397BC91D7
S11308300B2FE9012297A881FA2E21962881322FC5
S1130840142FC42FC37021F5EF2FF0E0E050FD4FBB
S11308503491EB2FF0E0E050FD4F5491E42F44230A
S113086014F4E3E0E40FE595E5950E2E000CFF0B80
S1130870E050FE4FE4915E27EA2FF0E0E050FD4F98
S1130880E4910E2FE22FF0E0E050FD4FE491FE2EB4
S1130890EB01C80FD91FDE0150972C9152275883C2
S11308A0DC011196A60FB71FAE014F505109FA0192
S11308B0208120272C93DC011296A60FB71F4F5FCF
S11308C05F4FFA012081EF2DE227EC930396DB01C1
S11308D0A80FB91F2D97E8813E273C9341E0410FB3
S11308E04C320CF497CFDF91CF911F910F91FF9071
S11308F008950F931F93CF938C01C0E007C00E940B
S11309003205F801EC0FF11D8083CF5FC031B8F3DD
S1130910CF911F910F910895DC0190E00EC0292F13
S113092030E0FD01E20FF31F4081FB01E20FF31FF2
S1130930208142130E9442059F5F903180F3089505
S1130940CF93DF93CDB7DEB7C05ED1090FB6F8946D
S1130950DEBF0FBECDBF80E090E00E941F02CB013E
S11309600E943705CE018F529F4F0E947904CE0119
S11309708F539F4F0E94790480E1FE01EF53FF4F94
S1130980DE01AF54BF4F01900D928A95E1F7BE018D
S11309906F5F7F4FCE018F529F4F0E94FC03BE01B9
S11309A06F537F4FCE0101960E94C003BE016F5367
S11309B07F4FCE0101960E94D902BE016F537F4F33
S11309C0CE018F549F4F0E948C04CCCF8F929F9264
S11309D0AF92BF92CF92DF92EF92FF92CF93DF93C9
S11309E0EC01688179818A819B816115710581059A
S11309F0910521F464E279ED8BE597E02DE133EF85
S1130A0041E050E00E94470549015A019B01AC01B5
S1130A10A7EAB1E40E9466056B017C01ACEEB4EF79
S1130A20A50194010E947405DC01CB018C0D9D1D70
S1130A30AE1DBF1DB7FF03C00197A109B04888834D
S1130A409983AA83BB839F77DF91CF91FF90EF9027
S1130A50DF90CF90BF90AF909F908F9008950E94A9
S1130A60E604089580E091E00E94E6040895A0E081
S1130A70B0E08093000190930101A0930201B09330
S1130A800301089581E090E0F8940C94AA05052EE2
S1130A9097FB1EF400940E945E0557FD07D00E9448
S1130AA0790507FC03D04EF40C945E0550954095EF
S1130AB0309521953F4F4F4F5F4F08959095809506
S1130AC0709561957F4F8F4F9F4F08950E949B05AE
S1130AD0A59F900DB49F900DA49F800D911D11248E
S1130AE00895B7FF0C9466050E946605821B930B5C
S1130AF00895A1E21A2EAA1BBB1BFD010DC0AA1F5B
S1130B00BB1FEE1FFF1FA217B307E407F50720F072
S1130B10A21BB30BE40BF50B661F771F881F991FED
S1130B201A9469F760957095809590959B01AC0136
S1130B30BD01CF010895A29FB001B39FC001A39F3F
S1130B40700D811D1124911DB29F700D811D112402
S10B0B50911D0895F894FFCFF4
S1070B580100000094
S9030000FC
