S01300004145535F50726F6A6563742E7372656302
S11300000C9400020C9415020C9415020C94150225
S11300100C9415020C9415020C9415020C94150200
S11300200C9415020C9415020C9415020C941502F0
S11300300C9415020C9415020C9415020C941502E0
S11300400C9415020C9415020C9415020C941502D0
S11300500C9415020C9415020C9415020C941502C0
S11300600C9415020C9415020C9415020C941502B0
S11300700C9415020C9415020C9415020C941502A0
S11300800C9415020C9415020C9415020C94150290
S11300900C9415020C9415020C9415020C94150280
S11300A00C9415020C9415020C9415020C94150270
S11300B00C94150200000000000000000000000085
S11300C0000000000000000000000000000000002C
S11300D0000000000000000000000000000000001C
S11300E0000000000000000000000000000000000C
S11300F000000000000000000000000000000000FC
S113010052096AD53036A538BF40A39E81F3D7FB88
S11301107CE339829B2FFF87348E4344C4DEE9CBD2
S1130120547B9432A6C2233DEE4C950B42FAC34E47
S1130130082EA16628D924B2765BA2496D8BD125FD
S113014072F8F66486689816D4A45CCC5D65B692A1
S11301506C704850FDEDB9DA5E154657A78D9D8445
S113016090D8AB008CBCD30AF7E45805B8B3450665
S1130170D02C1E8FCA3F0F02C1AFBD0301138A6B7F
S11301803A9111414F67DCEA97F2CFCEF0B4E673AF
S113019096AC7422E7AD3585E2F937E81C75DF6E5D
S11301A047F11A711D29C5896FB7620EAA18BE1BC3
S11301B0FC563E4BC6D279209ADBC0FE78CD5AF469
S11301C01FDDA8338807C731B11210592780EC5FAF
S11301D060517FA919B54A0D2DE57A9F93C99CEF0B
S11301E0A0E03B4DAE2AF5B0C8EBBB3C835399610C
S11301F0172B047EBA77D626E169146355210C7D4A
S11302000001020408102040801B3600000000009A
S113021000000000000000000000000000000000DA
S113022000000000000000000000000000000000CA
S113023000000000000000000000000000000000BA
S113024000000000000000000000000000000000AA
S1130250000000000000000000000000000000009A
S1130260000000000000000000000000000000008A
S1130270000000000000000000000000000000007A
S1130280000000000000000000000000000000006A
S1130290000000000000000000000000000000005A
S11302A0000000000000000000000000000000004A
S11302B0000000000000000000000000000000003A
S11302C0000000000000000000000000000000002A
S11302D0000000000000000000000000000000001A
S11302E0000000000000000000000000000000000A
S11302F000000000000000000000000000000000FA
S1130300637C777BF26B6FC53001672BFED7AB76CE
S1130310CA82C97DFA5947F0ADD4A2AF9CA472C079
S1130320B7FD9326363FF7CC34A5E5F171D83115E6
S113033004C723C31896059A071280E2EB27B27507
S113034009832C1A1B6E5AA0523BD6B329E32F847F
S113035053D100ED20FCB15B6ACBBE394A4C58CF77
S1130360D0EFAAFB434D338545F9027F503C9FA84B
S113037051A3408F929D38F5BCB6DA2110FFF3D219
S1130380CD0C13EC5F974417C4A77E3D645D1973CD
S113039060814FDC222A908846EEB814DE5E0BDBC7
S11303A0E0323A0A4906245CC2D3AC629195E479FE
S11303B0E7C8376D8DD54EA96C56F4EA657AAE0858
S11303C0BA78252E1CA6B4C6E8DD741F4BBD8B8AF3
S11303D0703EB5664803F60E613557B986C11D9E59
S11303E0E1F8981169D98E949B1E87E9CE5528DFD0
S11303F08CA1890DBFE6426841992D0FB054BB16FC
S113040011241FBECFEFD8E0DEBFCDBF11E0A0E0C6
S1130410B1E0E2E2F9E002C005900D92A031B1072B
S1130420D9F70E945E040C948F040C940000CF93BF
S1130430DF93CDB7DEB760970FB6F894DEBF0FBE7B
S1130440CDBFDB01EC91E150EC93F0E0EE0FFF1F28
S1130450EE0FFF1FE80FF91F80E1DE0111960190F6
S11304600D928A95E1F720E010C0822F90E0FA0106
S1130470E80FF91FA1E0B0E0AC0FBD1FA80FB91F32
S11304808C919081892780832F5F203170F360964F
S11304900FB6F894DEBF0FBECDBFDF91CF910895A4
S11304A09C0190E00AC0D901A90FB11DEC91F0E0C4
S11304B0E050FF4FE491EC939F5F9031A0F30895D7
S11304C0E62FF0E0EE0FFF1FEE0FFF1FE80FF91FFE
S11304D0808193819083928193839181928381839C
S11304E008950F931F93CF93DF93CDB7DEB7609733
S11304F00FB6F894DEBF0FBECDBFBC01A0E022C092
S11305004A2F50E0FA01EE0FFF1FEE0FFF1F292FB5
S113051030E0E20FF31FE60FF71F8081220F331F35
S1130520220F331FE1E0F0E0EC0FFD1F2E0F3F1F01
S1130530F901E40FF51F80839F5F01C090E09430C0
S1130540F8F2AF5FA430D0F301E00BC0602FCE010E
S113055001960E9460021F5F01C011E01017B0F302
S11305600F5F0430D0F360960FB6F894DEBF0FBE71
S1130570CDBFDF91CF911F910F910895CF92DF925C
S1130580FF920F931F93CF93DF931F92CDB7DEB7E4
S11305906C018B018BE08983AB01BE016F5F7F4FE0
S11305A0C6010E941702C8010E947102C8010E947C
S11305B05002F12C0EC0A801BE016F5F7F4FC6012F
S11305C00E941702C8010E947102C8010E945002D1
S11305D0F39488E08F1578F7A801BE016F5F7F4F11
S11305E0C6010E9417020F90DF91CF911F910F91C6
S11305F0FF90DF90CF900895CF93DF93CDB7DEB710
S113060060970FB6F894DEBF0FBECDBFDB01EC914F
S1130610F0E0EE0FFF1FEE0FFF1FE80FF91F80E160
S1130620DE01119601900D928A95E1F720E010C049
S1130630822F90E0FA01E80FF91FA1E0B0E0AC0FBF
S1130640BD1FA80FB91F8C919081892780832F5FCC
S1130650203170F3FB0180818F5F808360960FB639
S1130660F894DEBF0FBECDBFDF91CF9108959C01FA
S113067090E00AC0D901A90FB11DEC91F0E0E0505F
S1130680FD4FE491EC939F5F9031A0F30895E62F22
S1130690F0E0EE0FFF1FEE0FFF1FE80FF91F83813D
S11306A09081938391819083928191838283089531
S11306B00F931F93CF93DF93CDB7DEB760970FB639
S11306C0F894DEBF0FBECDBFBC01A0E022C04A2F0C
S11306D050E0FA01EE0FFF1FEE0FFF1F292F30E04D
S11306E0E20FF31FE60FF71F8081220F331F220F43
S11306F0331FE1E0F0E0EC0FFD1F2E0F3F1FF90167
S1130700E40FF51F80839F5F01C090E09430F8F2FE
S1130710AF5FA430D0F301E00BC0602FCE0101968F
S11307200E9447031F5F01C011E01017B0F30F5F71
S11307300430D0F360960FB6F894DEBF0FBECDBF81
S1130740DF91CF911F910F910895CF92DF92FF9285
S11307500F931F93CF93DF931F92CDB7DEB76C0136
S11307608B011982AB01BE016F5F7F4F0E94FC02B7
S1130770F12C0EC0C8010E943703C8010E9458031F
S1130780A801BE016F5F7F4FC6010E94FC02F39473
S113079088E08F1578F7C8010E943703C8010E94CA
S11307A05803A801BE016F5F7F4FC6010E94FC027F
S11307B00F90DF91CF911F910F91FF90DF90CF9019
S11307C00895FF920F931F93CF93DF93FC0190E161
S11307D0DB0101900D929A95E1F744E066C024E0B4
S11307E04202C00111249B01280F391FF9013497DB
S11307F0F0815F2FD9011397BC910B2FE901229748
S1130800A881FA2E21962881322F142FC42FC37069
S113081021F5EF2FF0E0E050FD4F3491EB2FF0E0A5
S1130820E050FD4F5491E42F442314F4E3E0E40F2B
S1130830E595E5950E2E000CFF0BE050FE4FE4917C
S11308405E27EA2FF0E0E050FD4FE4910E2FE22FF7
S1130850F0E0E050FD4FE491FE2EEB01C80FD91FEC
S1130860DE0150972C9152275883DC011196A60F74
S1130870B71FAE014F505109FA01208120272C9354
S1130880DC011296A60FB71F4F5F5F4FFA0120815C
S1130890EF2DE227EC930396DB01A80FB91F2D97E8
S11308A0E8813E273C9341E0410F4C320CF497CF52
S11308B0DF91CF911F910F91FF900895CF93DF9314
S11308C0CDB7DEB7C05DD1090FB6F894DEBF0FBE59
S11308D0CDBFCE018F539F4F20E1FC0111922A9589
S11308E0E9F720E1E0E0F1E0DE01AF54BF4F019011
S11308F00D922A95E1F7BE016F5F7F4F0E94E103DD
S1130900BE016F547F4FCE0101960E94A503BE0124
S11309106F547F4FCE0101960E94BE02DACFF89445
S1050920FFCF03
S113092201010101010101010101010101010101B1
S9030000FC
