S01300004145535F50726F6A6563742E7372656302
S11300000C9400010C9415010C9415010C94150129
S11300100C9415010C9415010C9415010C94150104
S11300200C9415010C9415010C9415010C941501F4
S11300300C9415010C9415010C9415010C941501E4
S11300400C9415010C9415010C9415010C941501D4
S11300500C9415010C9415010C9415010C941501C4
S11300600C9415010C9415010C9415010C941501B4
S11300700C9415010C9415010C9415010C941501A4
S11300800C9415010C9415010C9415010C94150194
S11300900C9415010C9415010C9415010C94150184
S11300A00C9415010C9415010C9415010C94150174
S11300B00C9415010001020408102040801B360036
S11300C0000000000000000000000000000000002C
S11300D0000000000000000000000000000000001C
S11300E0000000000000000000000000000000000C
S11300F000000000000000000000000000000000FC
S1130100637C777BF26B6FC53001672BFED7AB76D0
S1130110CA82C97DFA5947F0ADD4A2AF9CA472C07B
S1130120B7FD9326363FF7CC34A5E5F171D83115E8
S113013004C723C31896059A071280E2EB27B27509
S113014009832C1A1B6E5AA0523BD6B329E32F8481
S113015053D100ED20FCB15B6ACBBE394A4C58CF79
S1130160D0EFAAFB434D338545F9027F503C9FA84D
S113017051A3408F929D38F5BCB6DA2110FFF3D21B
S1130180CD0C13EC5F974417C4A77E3D645D1973CF
S113019060814FDC222A908846EEB814DE5E0BDBC9
S11301A0E0323A0A4906245CC2D3AC629195E47900
S11301B0E7C8376D8DD54EA96C56F4EA657AAE085A
S11301C0BA78252E1CA6B4C6E8DD741F4BBD8B8AF5
S11301D0703EB5664803F60E613557B986C11D9E5B
S11301E0E1F8981169D98E949B1E87E9CE5528DFD2
S11301F08CA1890DBFE6426841992D0FB054BB16FE
S113020011241FBECFEFD8E0DEBFCDBF11E0A0E0C8
S1130210B1E0EAE4F5E002C005900D92A031B10727
S1130220D9F70E9479020C94A3020C940000FF9267
S11302300F931F93CF93DF93FC0190E1DB010190B7
S11302400D929A95E1F744E066C024E04202C001B1
S113025011249B01280F391FF9013497F0815F2F76
S1130260D9011397BC910B2FE9012297A881FA2E8B
S113027021962881322F142FC42FC37021F5EF2F1C
S1130280F0E0E050FF4F3491EB2FF0E0E050FF4FEF
S11302905491E42F442314F4E3E0E40FE595E59549
S11302A00E2E000CFF0BEC54FF4FE4915E27EA2F57
S11302B0F0E0E050FF4FE4910E2FE22FF0E0E05029
S11302C0FF4FE491FE2EEB01C80FD91FDE015097BA
S11302D02C9152275883DC011196A60FB71FAE014B
S11302E04F505109FA01208120272C93DC011296EA
S11302F0A60FB71F4F5F5F4FFA012081EF2DE22752
S1130300EC930396DB01A80FB91F2D97E8813E27D4
S11303103C9341E0410F4C320CF497CFDF91CF91E5
S11303201F910F91FF900895CF93DF93CDB7DEB760
S113033060970FB6F894DEBF0FBECDBFDB01EC9122
S1130340F0E0EE0FFF1FEE0FFF1FE80FF91F80E133
S1130350DE01119601900D928A95E1F720E010C01C
S1130360822F90E0FA01E80FF91FA1E0B0E0AC0F92
S1130370BD1FA80FB91F8C919081892780832F5F9F
S1130380203170F3FB0180818F5F808360960FB60C
S1130390F894DEBF0FBECDBFDF91CF9108959C01CD
S11303A090E00AC0D901A90FB11DEC91F0E0E05032
S11303B0FF4FE491EC939F5F9031A0F30895E62FF3
S11303C0F0E0EE0FFF1FEE0FFF1FE80FF91F838110
S11303D09081938391819083928191838283089504
S11303E00F931F93CF93DF93CDB7DEB760970FB60C
S11303F0F894DEBF0FBECDBFBC01A0E022C04A2FDF
S113040050E0FA01EE0FFF1FEE0FFF1F292F30E01F
S1130410E20FF31FE60FF71F8081220F331F220F15
S1130420331FE1E0F0E0EC0FFD1F2E0F3F1FF90139
S1130430E40FF51F80839F5F01C090E09430F8F2D1
S1130440AF5FA430D0F301E00BC0602FCE01019662
S11304500E94DF011F5F01C011E01017B0F30F5FAE
S11304600430D0F360960FB6F894DEBF0FBECDBF54
S1130470DF91CF911F910F910895CF92DF92FF9258
S11304800F931F93CF93DF931F92CDB7DEB76C0109
S11304908B011982AB01BE016F5F7F4F0E949401F3
S11304A0F12C0EC0C8010E94CF01C8010E94F001C6
S11304B0A801BE016F5F7F4FC6010E949401F394AF
S11304C088E08F1578F7C8010E94CF01C8010E9407
S11304D0F001A801BE016F5F7F4FC6010E94940125
S11304E00F90DF91CF911F910F91FF90DF90CF90EC
S11304F00895CF93DF93CDB7DEB7C05DD1090FB6B2
S1130500F894DEBF0FBECDBFCE018F539F4F20E1C5
S1130510FC0111922A95E9F720E1E0E0F1E0DE0127
S1130520AF54BF4F01900D922A95E1F7BE016F5F62
S11305307F4F0E941701BE016F547F4FCE01019679
S10D05400E943D02E1CFF894FFCFC2
S113054A010101010101010101010101010101018D
S9030000FC
